{
  "contractName": "Market",
  "abi": [
    {
      "anonymous": false,
      "inputs": [
        {
          "indexed": false,
          "internalType": "uint256",
          "name": "listingId",
          "type": "uint256"
        },
        {
          "indexed": false,
          "internalType": "address",
          "name": "seller",
          "type": "address"
        }
      ],
      "name": "Cancel",
      "type": "event"
    },
    {
      "anonymous": false,
      "inputs": [
        {
          "indexed": false,
          "internalType": "uint256",
          "name": "listingId",
          "type": "uint256"
        },
        {
          "indexed": false,
          "internalType": "address",
          "name": "seller",
          "type": "address"
        },
        {
          "indexed": false,
          "internalType": "address",
          "name": "tokenAddress",
          "type": "address"
        },
        {
          "indexed": false,
          "internalType": "uint256",
          "name": "tokenId",
          "type": "uint256"
        },
        {
          "indexed": false,
          "internalType": "uint256",
          "name": "price",
          "type": "uint256"
        }
      ],
      "name": "Listed",
      "type": "event"
    },
    {
      "anonymous": false,
      "inputs": [
        {
          "indexed": false,
          "internalType": "uint256",
          "name": "listingId",
          "type": "uint256"
        },
        {
          "indexed": false,
          "internalType": "address",
          "name": "buyer",
          "type": "address"
        },
        {
          "indexed": false,
          "internalType": "address",
          "name": "tokenAddress",
          "type": "address"
        },
        {
          "indexed": false,
          "internalType": "uint256",
          "name": "tokenId",
          "type": "uint256"
        },
        {
          "indexed": false,
          "internalType": "uint256",
          "name": "price",
          "type": "uint256"
        }
      ],
      "name": "Sale",
      "type": "event"
    },
    {
      "inputs": [
        {
          "internalType": "address",
          "name": "tokenAddress",
          "type": "address"
        },
        {
          "internalType": "uint256",
          "name": "tokenId",
          "type": "uint256"
        },
        {
          "internalType": "uint256",
          "name": "price",
          "type": "uint256"
        }
      ],
      "name": "listToken",
      "outputs": [],
      "stateMutability": "nonpayable",
      "type": "function"
    },
    {
      "inputs": [
        {
          "internalType": "uint256",
          "name": "listingId",
          "type": "uint256"
        }
      ],
      "name": "getListing",
      "outputs": [
        {
          "components": [
            {
              "internalType": "enum Market.ListingStatus",
              "name": "status",
              "type": "uint8"
            },
            {
              "internalType": "address",
              "name": "seller",
              "type": "address"
            },
            {
              "internalType": "address",
              "name": "tokenAddress",
              "type": "address"
            },
            {
              "internalType": "uint256",
              "name": "tokenId",
              "type": "uint256"
            },
            {
              "internalType": "uint256",
              "name": "price",
              "type": "uint256"
            }
          ],
          "internalType": "struct Market.Listing",
          "name": "",
          "type": "tuple"
        }
      ],
      "stateMutability": "view",
      "type": "function",
      "constant": true
    },
    {
      "inputs": [
        {
          "internalType": "uint256",
          "name": "listingId",
          "type": "uint256"
        }
      ],
      "name": "buyToken",
      "outputs": [],
      "stateMutability": "payable",
      "type": "function",
      "payable": true
    },
    {
      "inputs": [
        {
          "internalType": "uint256",
          "name": "listingId",
          "type": "uint256"
        }
      ],
      "name": "cancel",
      "outputs": [],
      "stateMutability": "nonpayable",
      "type": "function"
    }
  ],
  "bytecode": "0x60806040526000805534801561001457600080fd5b50611042806100246000396000f3fe60806040526004361061005c576000357c010000000000000000000000000000000000000000000000000000000090048063107a274a146100615780632d296bf11461009e57806340e58ee5146100ba5780637e07590d146100e3575b600080fd5b34801561006d57600080fd5b5061008860048036038101906100839190610aa1565b61010c565b6040516100959190610bfd565b60405180910390f35b6100b860048036038101906100b39190610aa1565b610234565b005b3480156100c657600080fd5b506100e160048036038101906100dc9190610aa1565b61055a565b005b3480156100ef57600080fd5b5061010a60048036038101906101059190610c44565b6107bc565b005b6101146109f9565b600160008381526020019081526020016000206040518060a00160405290816000820160009054906101000a900460ff16600281111561015757610156610ace565b5b600281111561016957610168610ace565b5b81526020016000820160019054906101000a900473ffffffffffffffffffffffffffffffffffffffff1673ffffffffffffffffffffffffffffffffffffffff1673ffffffffffffffffffffffffffffffffffffffff1681526020016001820160009054906101000a900473ffffffffffffffffffffffffffffffffffffffff1673ffffffffffffffffffffffffffffffffffffffff1673ffffffffffffffffffffffffffffffffffffffff168152602001600282015481526020016003820154815250509050919050565b60006001600083815260200190815260200160002090508060000160019054906101000a900473ffffffffffffffffffffffffffffffffffffffff1673ffffffffffffffffffffffffffffffffffffffff163373ffffffffffffffffffffffffffffffffffffffff16036102dd576040517f08c379a00000000000000000000000000000000000000000000000000000000081526004016102d490610cf4565b60405180910390fd5b600060028111156102f1576102f0610ace565b5b8160000160009054906101000a900460ff16600281111561031557610314610ace565b5b14610355576040517f08c379a000000000000000000000000000000000000000000000000000000000815260040161034c90610d60565b60405180910390fd5b806003015434101561039c576040517f08c379a000000000000000000000000000000000000000000000000000000000815260040161039390610dcc565b60405180910390fd5b60018160000160006101000a81548160ff021916908360028111156103c4576103c3610ace565b5b02179055508060010160009054906101000a900473ffffffffffffffffffffffffffffffffffffffff1673ffffffffffffffffffffffffffffffffffffffff166323b872dd303384600201546040518463ffffffff167c010000000000000000000000000000000000000000000000000000000002815260040161044a93929190610e0a565b600060405180830381600087803b15801561046457600080fd5b505af1158015610478573d6000803e3d6000fd5b505050508060000160019054906101000a900473ffffffffffffffffffffffffffffffffffffffff1673ffffffffffffffffffffffffffffffffffffffff166108fc82600301549081150290604051600060405180830381858888f193505050501580156104ea573d6000803e3d6000fd5b507ff3debaf22196a6ddf52a60fa71058cd7edf5e25bb98f4e96c994a5d4a9b0dd3e82338360010160009054906101000a900473ffffffffffffffffffffffffffffffffffffffff168460020154856003015460405161054e959493929190610e41565b60405180910390a15050565b60006001600083815260200190815260200160002090508060000160019054906101000a900473ffffffffffffffffffffffffffffffffffffffff1673ffffffffffffffffffffffffffffffffffffffff163373ffffffffffffffffffffffffffffffffffffffff1614610603576040517f08c379a00000000000000000000000000000000000000000000000000000000081526004016105fa90610ee0565b60405180910390fd5b6000600281111561061757610616610ace565b5b8160000160009054906101000a900460ff16600281111561063b5761063a610ace565b5b1461067b576040517f08c379a000000000000000000000000000000000000000000000000000000000815260040161067290610f4c565b60405180910390fd5b60028160000160006101000a81548160ff021916908360028111156106a3576106a2610ace565b5b02179055508060010160009054906101000a900473ffffffffffffffffffffffffffffffffffffffff1673ffffffffffffffffffffffffffffffffffffffff166323b872dd303384600201546040518463ffffffff167c010000000000000000000000000000000000000000000000000000000002815260040161072993929190610e0a565b600060405180830381600087803b15801561074357600080fd5b505af1158015610757573d6000803e3d6000fd5b505050507f8dd3c361eb2366ff27c2db0eb07b9261f1d052570742ab8c9a0c326f37aa576d828260000160019054906101000a900473ffffffffffffffffffffffffffffffffffffffff166040516107b0929190610f6c565b60405180910390a15050565b8273ffffffffffffffffffffffffffffffffffffffff166323b872dd3330856040518463ffffffff167c010000000000000000000000000000000000000000000000000000000002815260040161081593929190610e0a565b600060405180830381600087803b15801561082f57600080fd5b505af1158015610843573d6000803e3d6000fd5b5050505060006040518060a001604052806000600281111561086857610867610ace565b5b81526020013373ffffffffffffffffffffffffffffffffffffffff1681526020018573ffffffffffffffffffffffffffffffffffffffff1681526020018481526020018381525090506000808154809291906108c390610fc4565b919050555080600160008054815260200190815260200160002060008201518160000160006101000a81548160ff0219169083600281111561090857610907610ace565b5b021790555060208201518160000160016101000a81548173ffffffffffffffffffffffffffffffffffffffff021916908373ffffffffffffffffffffffffffffffffffffffff16021790555060408201518160010160006101000a81548173ffffffffffffffffffffffffffffffffffffffff021916908373ffffffffffffffffffffffffffffffffffffffff16021790555060608201518160020155608082015181600301559050507f723f73331eaee88eec7fc68ef60ab6ed15e4b90d0472b55eb92fa43910bab6dd600054338686866040516109eb959493929190610e41565b60405180910390a150505050565b6040518060a0016040528060006002811115610a1857610a17610ace565b5b8152602001600073ffffffffffffffffffffffffffffffffffffffff168152602001600073ffffffffffffffffffffffffffffffffffffffff16815260200160008152602001600081525090565b600080fd5b6000819050919050565b610a7e81610a6b565b8114610a8957600080fd5b50565b600081359050610a9b81610a75565b92915050565b600060208284031215610ab757610ab6610a66565b5b6000610ac584828501610a8c565b91505092915050565b7f4e487b7100000000000000000000000000000000000000000000000000000000600052602160045260246000fd5b60038110610b0e57610b0d610ace565b5b50565b6000819050610b1f82610afd565b919050565b6000610b2f82610b11565b9050919050565b610b3f81610b24565b82525050565b600073ffffffffffffffffffffffffffffffffffffffff82169050919050565b6000610b7082610b45565b9050919050565b610b8081610b65565b82525050565b610b8f81610a6b565b82525050565b60a082016000820151610bab6000850182610b36565b506020820151610bbe6020850182610b77565b506040820151610bd16040850182610b77565b506060820151610be46060850182610b86565b506080820151610bf76080850182610b86565b50505050565b600060a082019050610c126000830184610b95565b92915050565b610c2181610b65565b8114610c2c57600080fd5b50565b600081359050610c3e81610c18565b92915050565b600080600060608486031215610c5d57610c5c610a66565b5b6000610c6b86828701610c2f565b9350506020610c7c86828701610a8c565b9250506040610c8d86828701610a8c565b9150509250925092565b600082825260208201905092915050565b7f53656c6c65722063616e6e6f7420626520627579657200000000000000000000600082015250565b6000610cde601683610c97565b9150610ce982610ca8565b602082019050919050565b60006020820190508181036000830152610d0d81610cd1565b9050919050565b7f4c697374696e67206973206e6f74206163746976650000000000000000000000600082015250565b6000610d4a601583610c97565b9150610d5582610d14565b602082019050919050565b60006020820190508181036000830152610d7981610d3d565b9050919050565b7f496e73756666696369656e74207061796d656e74000000000000000000000000600082015250565b6000610db6601483610c97565b9150610dc182610d80565b602082019050919050565b60006020820190508181036000830152610de581610da9565b9050919050565b610df581610b65565b82525050565b610e0481610a6b565b82525050565b6000606082019050610e1f6000830186610dec565b610e2c6020830185610dec565b610e396040830184610dfb565b949350505050565b600060a082019050610e566000830188610dfb565b610e636020830187610dec565b610e706040830186610dec565b610e7d6060830185610dfb565b610e8a6080830184610dfb565b9695505050505050565b7f4f6e6c792073656c6c65722063616e2063616e63656c206c697374696e670000600082015250565b6000610eca601e83610c97565b9150610ed582610e94565b602082019050919050565b60006020820190508181036000830152610ef981610ebd565b9050919050565b7f4c69736974696e67206973206e6f742061637469766500000000000000000000600082015250565b6000610f36601683610c97565b9150610f4182610f00565b602082019050919050565b60006020820190508181036000830152610f6581610f29565b9050919050565b6000604082019050610f816000830185610dfb565b610f8e6020830184610dec565b9392505050565b7f4e487b7100000000000000000000000000000000000000000000000000000000600052601160045260246000fd5b6000610fcf82610a6b565b91507fffffffffffffffffffffffffffffffffffffffffffffffffffffffffffffffff820361100157611000610f95565b5b60018201905091905056fea264697066735822122059a2f3254ef5483c45db6d8b7867295efcec74f0ad1fd3f72639a464c4569eeb64736f6c634300080d0033",
  "immutableReferences": {},
  "source": "// SPDX-License-Identifier: Unlicensed\npragma solidity ^0.8.13; \n\nimport \"./IERC721.sol\";\n\ncontract Market {\n\n    enum ListingStatus { ACTIVE, SOLD, CANCELLED }\n\n    struct Listing {\n        ListingStatus status;\n        address seller;\n        address tokenAddress;\n        uint tokenId;\n        uint price;\n    } \n\n    event Listed(\n        uint listingId,\n        address seller,\n        address tokenAddress,\n        uint tokenId,\n        uint price\n    );\n\n    event Sale(\n        uint listingId,\n        address buyer,\n        address tokenAddress,\n        uint tokenId,\n        uint price\n    );\n\n    event Cancel(\n        uint listingId,\n        address seller\n    );\n\n    uint private _listingId = 0;\n    mapping(uint => Listing) private _listings;\n\n    function listToken(address tokenAddress, uint tokenId, uint price) external {\n        IERC721(tokenAddress).transferFrom(msg.sender, address(this), tokenId);\n        \n        Listing memory listing = Listing(\n            ListingStatus.ACTIVE,\n            msg.sender,\n            tokenAddress,\n            tokenId,\n            price\n        );\n\n        _listingId++;\n\n        _listings[_listingId] = listing;\n\n        emit Listed(\n            _listingId,\n            msg.sender,\n            tokenAddress,\n            tokenId,\n            price \n        );\n    }\n\n    function getListing(uint listingId) public view returns (Listing memory) {\n        return _listings[listingId];\n    }\n\n    function buyToken(uint listingId) external payable {\n        Listing storage listing = _listings[listingId];\n\n        require(msg.sender != listing.seller, \"Seller cannot be buyer\");\n        require(listing.status == ListingStatus.ACTIVE, \"Listing is not active\");\n        require(msg.value >= listing.price, \"Insufficient payment\");\n\n        listing.status = ListingStatus.SOLD;\n  \n        IERC721(listing.tokenAddress).transferFrom(address(this), msg.sender, listing.tokenId);\n        payable(listing.seller).transfer(listing.price);\n\n        emit Sale(listingId, msg.sender, listing.tokenAddress, listing.tokenId, listing.price);\n    }\n\n    function cancel(uint listingId) public {\n        Listing storage listing = _listings[listingId];\n\n        require(msg.sender == listing.seller, \"Only seller can cancel listing\");\n        require(listing.status == ListingStatus.ACTIVE, \"Lisiting is not active\");\n\n        listing.status = ListingStatus.CANCELLED;\n\n        IERC721(listing.tokenAddress).transferFrom(address(this), msg.sender, listing.tokenId);\n\n        emit Cancel(listingId, listing.seller);\n    }\n}",
  "sourcePath": "/Users/ztlab62/Documents/Solidity/ERC721_Practice/nft_marketplace/contracts/Market.sol",
  "compiler": {
    "name": "solc",
    "version": "0.8.13+commit.abaa5c0e.Emscripten.clang"
  },
  "schemaVersion": "3.4.6",
  "updatedAt": "2022-04-25T07:32:57.191Z",
  "networkType": "ethereum",
  "devdoc": {
    "kind": "dev",
    "methods": {},
    "version": 1
  },
  "userdoc": {
    "kind": "user",
    "methods": {},
    "version": 1
  }
}